{
  "contractName": "OrderFulfillment",
  "abi": [
    {
      "inputs": [
        {
          "internalType": "address",
          "name": "_client",
          "type": "address"
        },
        {
          "internalType": "address",
          "name": "_courier",
          "type": "address"
        }
      ],
      "stateMutability": "nonpayable",
      "type": "constructor"
    },
    {
      "inputs": [
        {
          "internalType": "address",
          "name": "owner",
          "type": "address"
        }
      ],
      "name": "OwnableInvalidOwner",
      "type": "error"
    },
    {
      "inputs": [
        {
          "internalType": "address",
          "name": "account",
          "type": "address"
        }
      ],
      "name": "OwnableUnauthorizedAccount",
      "type": "error"
    },
    {
      "inputs": [],
      "name": "ReentrancyGuardReentrantCall",
      "type": "error"
    },
    {
      "anonymous": false,
      "inputs": [
        {
          "indexed": true,
          "internalType": "uint256",
          "name": "orderId",
          "type": "uint256"
        },
        {
          "indexed": false,
          "internalType": "string",
          "name": "uri",
          "type": "string"
        }
      ],
      "name": "InvoiceUploaded",
      "type": "event"
    },
    {
      "anonymous": false,
      "inputs": [
        {
          "indexed": true,
          "internalType": "uint256",
          "name": "orderId",
          "type": "uint256"
        }
      ],
      "name": "OrderCreated",
      "type": "event"
    },
    {
      "anonymous": false,
      "inputs": [
        {
          "indexed": true,
          "internalType": "address",
          "name": "previousOwner",
          "type": "address"
        },
        {
          "indexed": true,
          "internalType": "address",
          "name": "newOwner",
          "type": "address"
        }
      ],
      "name": "OwnershipTransferred",
      "type": "event"
    },
    {
      "anonymous": false,
      "inputs": [
        {
          "indexed": true,
          "internalType": "uint256",
          "name": "orderId",
          "type": "uint256"
        },
        {
          "indexed": false,
          "internalType": "uint256",
          "name": "amount",
          "type": "uint256"
        }
      ],
      "name": "Paid",
      "type": "event"
    },
    {
      "anonymous": false,
      "inputs": [
        {
          "indexed": true,
          "internalType": "uint256",
          "name": "orderId",
          "type": "uint256"
        },
        {
          "indexed": false,
          "internalType": "uint256",
          "name": "toProvider",
          "type": "uint256"
        },
        {
          "indexed": false,
          "internalType": "uint256",
          "name": "toCourier",
          "type": "uint256"
        }
      ],
      "name": "PayoutsReleased",
      "type": "event"
    },
    {
      "anonymous": false,
      "inputs": [
        {
          "indexed": true,
          "internalType": "uint256",
          "name": "orderId",
          "type": "uint256"
        },
        {
          "indexed": false,
          "internalType": "uint256",
          "name": "fulfillmentFee",
          "type": "uint256"
        },
        {
          "indexed": false,
          "internalType": "uint256",
          "name": "shipmentFee",
          "type": "uint256"
        }
      ],
      "name": "PriceSet",
      "type": "event"
    },
    {
      "anonymous": false,
      "inputs": [
        {
          "indexed": true,
          "internalType": "uint256",
          "name": "orderId",
          "type": "uint256"
        },
        {
          "indexed": false,
          "internalType": "enum OrderFulfillment.Status",
          "name": "status",
          "type": "uint8"
        }
      ],
      "name": "StatusChanged",
      "type": "event"
    },
    {
      "inputs": [],
      "name": "client",
      "outputs": [
        {
          "internalType": "address",
          "name": "",
          "type": "address"
        }
      ],
      "stateMutability": "view",
      "type": "function",
      "constant": true
    },
    {
      "inputs": [],
      "name": "courier",
      "outputs": [
        {
          "internalType": "address",
          "name": "",
          "type": "address"
        }
      ],
      "stateMutability": "view",
      "type": "function",
      "constant": true
    },
    {
      "inputs": [],
      "name": "nextOrderId",
      "outputs": [
        {
          "internalType": "uint256",
          "name": "",
          "type": "uint256"
        }
      ],
      "stateMutability": "view",
      "type": "function",
      "constant": true
    },
    {
      "inputs": [
        {
          "internalType": "uint256",
          "name": "",
          "type": "uint256"
        }
      ],
      "name": "orders",
      "outputs": [
        {
          "internalType": "enum OrderFulfillment.Status",
          "name": "status",
          "type": "uint8"
        },
        {
          "internalType": "uint256",
          "name": "fulfillmentFee",
          "type": "uint256"
        },
        {
          "internalType": "uint256",
          "name": "shipmentFee",
          "type": "uint256"
        },
        {
          "internalType": "uint256",
          "name": "paid",
          "type": "uint256"
        },
        {
          "internalType": "string",
          "name": "tracking",
          "type": "string"
        },
        {
          "internalType": "string",
          "name": "invoiceUri",
          "type": "string"
        }
      ],
      "stateMutability": "view",
      "type": "function",
      "constant": true
    },
    {
      "inputs": [],
      "name": "owner",
      "outputs": [
        {
          "internalType": "address",
          "name": "",
          "type": "address"
        }
      ],
      "stateMutability": "view",
      "type": "function",
      "constant": true
    },
    {
      "inputs": [],
      "name": "renounceOwnership",
      "outputs": [],
      "stateMutability": "nonpayable",
      "type": "function"
    },
    {
      "inputs": [
        {
          "internalType": "address",
          "name": "newOwner",
          "type": "address"
        }
      ],
      "name": "transferOwnership",
      "outputs": [],
      "stateMutability": "nonpayable",
      "type": "function"
    },
    {
      "inputs": [],
      "name": "createOrder",
      "outputs": [
        {
          "internalType": "uint256",
          "name": "orderId",
          "type": "uint256"
        }
      ],
      "stateMutability": "nonpayable",
      "type": "function"
    },
    {
      "inputs": [
        {
          "internalType": "uint256",
          "name": "orderId",
          "type": "uint256"
        },
        {
          "internalType": "uint256",
          "name": "fulfillmentFee",
          "type": "uint256"
        },
        {
          "internalType": "uint256",
          "name": "shipmentFee",
          "type": "uint256"
        }
      ],
      "name": "setPrice",
      "outputs": [],
      "stateMutability": "nonpayable",
      "type": "function"
    },
    {
      "inputs": [
        {
          "internalType": "uint256",
          "name": "orderId",
          "type": "uint256"
        }
      ],
      "name": "markProcessing",
      "outputs": [],
      "stateMutability": "nonpayable",
      "type": "function"
    },
    {
      "inputs": [
        {
          "internalType": "uint256",
          "name": "orderId",
          "type": "uint256"
        }
      ],
      "name": "requestPayment",
      "outputs": [],
      "stateMutability": "nonpayable",
      "type": "function"
    },
    {
      "inputs": [
        {
          "internalType": "uint256",
          "name": "orderId",
          "type": "uint256"
        }
      ],
      "name": "pay",
      "outputs": [],
      "stateMutability": "payable",
      "type": "function",
      "payable": true
    },
    {
      "inputs": [
        {
          "internalType": "uint256",
          "name": "orderId",
          "type": "uint256"
        },
        {
          "internalType": "string",
          "name": "tracking",
          "type": "string"
        }
      ],
      "name": "setTracking",
      "outputs": [],
      "stateMutability": "nonpayable",
      "type": "function"
    },
    {
      "inputs": [
        {
          "internalType": "uint256",
          "name": "orderId",
          "type": "uint256"
        },
        {
          "internalType": "string",
          "name": "uri",
          "type": "string"
        }
      ],
      "name": "uploadInvoice",
      "outputs": [],
      "stateMutability": "nonpayable",
      "type": "function"
    },
    {
      "inputs": [
        {
          "internalType": "uint256",
          "name": "orderId",
          "type": "uint256"
        }
      ],
      "name": "closeAndPayout",
      "outputs": [],
      "stateMutability": "nonpayable",
      "type": "function"
    },
    {
      "inputs": [
        {
          "internalType": "uint256",
          "name": "orderId",
          "type": "uint256"
        }
      ],
      "name": "cancel",
      "outputs": [],
      "stateMutability": "nonpayable",
      "type": "function"
    }
  ],
  "bytecode": "0x60806040523480156200001157600080fd5b50604051620022b2380380620022b283398181016040528101906200003791906200027e565b33600073ffffffffffffffffffffffffffffffffffffffff168173ffffffffffffffffffffffffffffffffffffffff1603620000ad5760006040517f1e4fbdf7000000000000000000000000000000000000000000000000000000008152600401620000a49190620002d6565b60405180910390fd5b620000be816200015060201b60201c565b506001808190555081600360006101000a81548173ffffffffffffffffffffffffffffffffffffffff021916908373ffffffffffffffffffffffffffffffffffffffff16021790555080600260006101000a81548173ffffffffffffffffffffffffffffffffffffffff021916908373ffffffffffffffffffffffffffffffffffffffff1602179055505050620002f3565b60008060009054906101000a900473ffffffffffffffffffffffffffffffffffffffff169050816000806101000a81548173ffffffffffffffffffffffffffffffffffffffff021916908373ffffffffffffffffffffffffffffffffffffffff1602179055508173ffffffffffffffffffffffffffffffffffffffff168173ffffffffffffffffffffffffffffffffffffffff167f8be0079c531659141344cd1fd0a4f28419497f9722a3daafe3b4186f6b6457e060405160405180910390a35050565b600080fd5b600073ffffffffffffffffffffffffffffffffffffffff82169050919050565b6000620002468262000219565b9050919050565b620002588162000239565b81146200026457600080fd5b50565b60008151905062000278816200024d565b92915050565b6000806040838503121562000298576200029762000214565b5b6000620002a88582860162000267565b9250506020620002bb8582860162000267565b9150509250929050565b620002d08162000239565b82525050565b6000602082019050620002ed6000830184620002c5565b92915050565b611faf80620003036000396000f3fe6080604052600436106100f35760003560e01c80638da5cb5b1161008a578063c82e77c911610059578063c82e77c9146102e8578063ce4e574d14610311578063e89ec4481461033a578063f2fde38b14610363576100f3565b80638da5cb5b14610236578063a85c38ef14610261578063aa585d56146102a3578063c290d691146102cc576100f3565b806350a7f7d3116100c657806350a7f7d3146101a05780635de988ab146101cb5780636512e6ec146101f4578063715018a61461021f576100f3565b8063109e94cf146100f85780632a58b3301461012357806340e58ee51461014e5780634ed90a5614610177575b600080fd5b34801561010457600080fd5b5061010d61038c565b60405161011a91906114e5565b60405180910390f35b34801561012f57600080fd5b506101386103b2565b6040516101459190611519565b60405180910390f35b34801561015a57600080fd5b506101756004803603810190610170919061156a565b6103b8565b005b34801561018357600080fd5b5061019e600480360381019061019991906115fc565b610539565b005b3480156101ac57600080fd5b506101b561068a565b6040516101c291906114e5565b60405180910390f35b3480156101d757600080fd5b506101f260048036038101906101ed919061156a565b6106b0565b005b34801561020057600080fd5b506102096107b1565b6040516102169190611519565b60405180910390f35b34801561022b57600080fd5b50610234610843565b005b34801561024257600080fd5b5061024b610857565b60405161025891906114e5565b60405180910390f35b34801561026d57600080fd5b506102886004803603810190610283919061156a565b610880565b60405161029a96959493929190611763565b60405180910390f35b3480156102af57600080fd5b506102ca60048036038101906102c591906117d2565b6109d9565b005b6102e660048036038101906102e1919061156a565b610b28565b005b3480156102f457600080fd5b5061030f600480360381019061030a91906115fc565b610d5d565b005b34801561031d57600080fd5b506103386004803603810190610333919061156a565b610e8e565b005b34801561034657600080fd5b50610361600480360381019061035c919061156a565b61117b565b005b34801561036f57600080fd5b5061038a60048036038101906103859190611851565b61127c565b005b600360009054906101000a900473ffffffffffffffffffffffffffffffffffffffff1681565b60045481565b6103c0611302565b6000600560008381526020019081526020016000209050600060078111156103eb576103ea61165c565b5b8160000160009054906101000a900460ff16600781111561040f5761040e61165c565b5b148061045057506001600781111561042a5761042961165c565b5b8160000160009054906101000a900460ff16600781111561044e5761044d61165c565b5b145b8061049057506002600781111561046a5761046961165c565b5b8160000160009054906101000a900460ff16600781111561048e5761048d61165c565b5b145b6104cf576040517f08c379a00000000000000000000000000000000000000000000000000000000081526004016104c6906118ca565b60405180910390fd5b60078160000160006101000a81548160ff021916908360078111156104f7576104f661165c565b5b0217905550817f365a3d0a71be5f440c8224437355d5bd81a703759bf906e441902272bfbafcb3600760405161052d91906118ea565b60405180910390a25050565b610541611302565b60006005600085815260200190815260200160002090506004600781111561056c5761056b61165c565b5b8160000160009054906101000a900460ff1660078111156105905761058f61165c565b5b146105d0576040517f08c379a00000000000000000000000000000000000000000000000000000000081526004016105c7906118ca565b60405180910390fd5b82828260050191826105e3929190611b4b565b5060058160000160006101000a81548160ff0219169083600781111561060c5761060b61165c565b5b0217905550837f3aaececa0d62c6d63657d689de6c547df0397b277c8de33da5289913e57d9a758484604051610643929190611c57565b60405180910390a2837f365a3d0a71be5f440c8224437355d5bd81a703759bf906e441902272bfbafcb3600560405161067c91906118ea565b60405180910390a250505050565b600260009054906101000a900473ffffffffffffffffffffffffffffffffffffffff1681565b6106b8611302565b6000600560008381526020019081526020016000209050600260078111156106e3576106e261165c565b5b8160000160009054906101000a900460ff1660078111156107075761070661165c565b5b14610747576040517f08c379a000000000000000000000000000000000000000000000000000000000815260040161073e906118ca565b60405180910390fd5b60038160000160006101000a81548160ff0219169083600781111561076f5761076e61165c565b5b0217905550817f365a3d0a71be5f440c8224437355d5bd81a703759bf906e441902272bfbafcb360036040516107a591906118ea565b60405180910390a25050565b60006107bb611302565b600460008154809291906107ce90611caa565b91905055905060006005600083815260200190815260200160002060000160006101000a81548160ff0219169083600781111561080e5761080d61165c565b5b0217905550807f7e82078c35b6665b9d320ebeaa6c266960fad5b802c5558cf7df60c4769af95b60405160405180910390a290565b61084b611302565b6108556000611389565b565b60008060009054906101000a900473ffffffffffffffffffffffffffffffffffffffff16905090565b60056020528060005260406000206000915090508060000160009054906101000a900460ff16908060010154908060020154908060030154908060040180546108c89061196e565b80601f01602080910402602001604051908101604052809291908181526020018280546108f49061196e565b80156109415780601f1061091657610100808354040283529160200191610941565b820191906000526020600020905b81548152906001019060200180831161092457829003601f168201915b5050505050908060050180546109569061196e565b80601f01602080910402602001604051908101604052809291908181526020018280546109829061196e565b80156109cf5780601f106109a4576101008083540402835291602001916109cf565b820191906000526020600020905b8154815290600101906020018083116109b257829003601f168201915b5050505050905086565b6109e1611302565b600060056000858152602001908152602001600020905060006007811115610a0c57610a0b61165c565b5b8160000160009054906101000a900460ff166007811115610a3057610a2f61165c565b5b14610a70576040517f08c379a0000000000000000000000000000000000000000000000000000000008152600401610a67906118ca565b60405180910390fd5b82816001018190555081816002018190555060018160000160006101000a81548160ff02191690836007811115610aaa57610aa961165c565b5b0217905550837f22db173e2a8b7fa2d933790c01e64878b79e267d813bb3227a15b1c7ac404ffe8484604051610ae1929190611cf2565b60405180910390a2837f365a3d0a71be5f440c8224437355d5bd81a703759bf906e441902272bfbafcb36001604051610b1a91906118ea565b60405180910390a250505050565b600360009054906101000a900473ffffffffffffffffffffffffffffffffffffffff1673ffffffffffffffffffffffffffffffffffffffff163373ffffffffffffffffffffffffffffffffffffffff1614610bb8576040517f08c379a0000000000000000000000000000000000000000000000000000000008152600401610baf90611d67565b60405180910390fd5b610bc061144d565b600060056000838152602001908152602001600020905060036007811115610beb57610bea61165c565b5b8160000160009054906101000a900460ff166007811115610c0f57610c0e61165c565b5b14610c4f576040517f08c379a0000000000000000000000000000000000000000000000000000000008152600401610c46906118ca565b60405180910390fd5b600081600201548260010154610c659190611d87565b9050803414610ca9576040517f08c379a0000000000000000000000000000000000000000000000000000000008152600401610ca090611e07565b60405180910390fd5b34826003018190555060048260000160006101000a81548160ff02191690836007811115610cda57610cd961165c565b5b0217905550827fef53713ee4f072f79f4d516084e3f4d15f2cde709d2091235b37ae719c272dd634604051610d0f9190611519565b60405180910390a2827f365a3d0a71be5f440c8224437355d5bd81a703759bf906e441902272bfbafcb36004604051610d4891906118ea565b60405180910390a25050610d5a611493565b50565b610d65611302565b600060056000858152602001908152602001600020905060046007811115610d9057610d8f61165c565b5b8160000160009054906101000a900460ff166007811115610db457610db361165c565b5b1480610df5575060036007811115610dcf57610dce61165c565b5b8160000160009054906101000a900460ff166007811115610df357610df261165c565b5b145b80610e35575060026007811115610e0f57610e0e61165c565b5b8160000160009054906101000a900460ff166007811115610e3357610e3261165c565b5b145b610e74576040517f08c379a0000000000000000000000000000000000000000000000000000000008152600401610e6b906118ca565b60405180910390fd5b8282826004019182610e87929190611b4b565b5050505050565b610e96611302565b610e9e61144d565b600060056000838152602001908152602001600020905060056007811115610ec957610ec861165c565b5b8160000160009054906101000a900460ff166007811115610eed57610eec61165c565b5b14610f2d576040517f08c379a0000000000000000000000000000000000000000000000000000000008152600401610f24906118ca565b60405180910390fd5b60068160000160006101000a81548160ff02191690836007811115610f5557610f5461165c565b5b02179055506000816002015490506000818360030154610f759190611e27565b9050837f365a3d0a71be5f440c8224437355d5bd81a703759bf906e441902272bfbafcb36006604051610fa891906118ea565b60405180910390a2837f0d20d94daf62468f827da054ce5674147391ad39f69f7fe311b8b9b35f59044b8284604051610fe2929190611cf2565b60405180910390a26000610ff4610857565b73ffffffffffffffffffffffffffffffffffffffff168260405161101790611e8c565b60006040518083038185875af1925050503d8060008114611054576040519150601f19603f3d011682016040523d82523d6000602084013e611059565b606091505b505090508061109d576040517f08c379a000000000000000000000000000000000000000000000000000000000815260040161109490611eed565b60405180910390fd5b6000600260009054906101000a900473ffffffffffffffffffffffffffffffffffffffff1673ffffffffffffffffffffffffffffffffffffffff16846040516110e590611e8c565b60006040518083038185875af1925050503d8060008114611122576040519150601f19603f3d011682016040523d82523d6000602084013e611127565b606091505b505090508061116b576040517f08c379a000000000000000000000000000000000000000000000000000000000815260040161116290611f59565b60405180910390fd5b5050505050611178611493565b50565b611183611302565b6000600560008381526020019081526020016000209050600160078111156111ae576111ad61165c565b5b8160000160009054906101000a900460ff1660078111156111d2576111d161165c565b5b14611212576040517f08c379a0000000000000000000000000000000000000000000000000000000008152600401611209906118ca565b60405180910390fd5b60028160000160006101000a81548160ff0219169083600781111561123a5761123961165c565b5b0217905550817f365a3d0a71be5f440c8224437355d5bd81a703759bf906e441902272bfbafcb3600260405161127091906118ea565b60405180910390a25050565b611284611302565b600073ffffffffffffffffffffffffffffffffffffffff168173ffffffffffffffffffffffffffffffffffffffff16036112f65760006040517f1e4fbdf70000000000000000000000000000000000000000000000000000000081526004016112ed91906114e5565b60405180910390fd5b6112ff81611389565b50565b61130a61149c565b73ffffffffffffffffffffffffffffffffffffffff16611328610857565b73ffffffffffffffffffffffffffffffffffffffff16146113875761134b61149c565b6040517f118cdaa700000000000000000000000000000000000000000000000000000000815260040161137e91906114e5565b60405180910390fd5b565b60008060009054906101000a900473ffffffffffffffffffffffffffffffffffffffff169050816000806101000a81548173ffffffffffffffffffffffffffffffffffffffff021916908373ffffffffffffffffffffffffffffffffffffffff1602179055508173ffffffffffffffffffffffffffffffffffffffff168173ffffffffffffffffffffffffffffffffffffffff167f8be0079c531659141344cd1fd0a4f28419497f9722a3daafe3b4186f6b6457e060405160405180910390a35050565b600260015403611489576040517f3ee5aeb500000000000000000000000000000000000000000000000000000000815260040160405180910390fd5b6002600181905550565b60018081905550565b600033905090565b600073ffffffffffffffffffffffffffffffffffffffff82169050919050565b60006114cf826114a4565b9050919050565b6114df816114c4565b82525050565b60006020820190506114fa60008301846114d6565b92915050565b6000819050919050565b61151381611500565b82525050565b600060208201905061152e600083018461150a565b92915050565b600080fd5b600080fd5b61154781611500565b811461155257600080fd5b50565b6000813590506115648161153e565b92915050565b6000602082840312156115805761157f611534565b5b600061158e84828501611555565b91505092915050565b600080fd5b600080fd5b600080fd5b60008083601f8401126115bc576115bb611597565b5b8235905067ffffffffffffffff8111156115d9576115d861159c565b5b6020830191508360018202830111156115f5576115f46115a1565b5b9250929050565b60008060006040848603121561161557611614611534565b5b600061162386828701611555565b935050602084013567ffffffffffffffff81111561164457611643611539565b5b611650868287016115a6565b92509250509250925092565b7f4e487b7100000000000000000000000000000000000000000000000000000000600052602160045260246000fd5b6008811061169c5761169b61165c565b5b50565b60008190506116ad8261168b565b919050565b60006116bd8261169f565b9050919050565b6116cd816116b2565b82525050565b600081519050919050565b600082825260208201905092915050565b60005b8381101561170d5780820151818401526020810190506116f2565b60008484015250505050565b6000601f19601f8301169050919050565b6000611735826116d3565b61173f81856116de565b935061174f8185602086016116ef565b61175881611719565b840191505092915050565b600060c08201905061177860008301896116c4565b611785602083018861150a565b611792604083018761150a565b61179f606083018661150a565b81810360808301526117b1818561172a565b905081810360a08301526117c5818461172a565b9050979650505050505050565b6000806000606084860312156117eb576117ea611534565b5b60006117f986828701611555565b935050602061180a86828701611555565b925050604061181b86828701611555565b9150509250925092565b61182e816114c4565b811461183957600080fd5b50565b60008135905061184b81611825565b92915050565b60006020828403121561186757611866611534565b5b60006118758482850161183c565b91505092915050565b7f4261642073746174757300000000000000000000000000000000000000000000600082015250565b60006118b4600a836116de565b91506118bf8261187e565b602082019050919050565b600060208201905081810360008301526118e3816118a7565b9050919050565b60006020820190506118ff60008301846116c4565b92915050565b600082905092915050565b7f4e487b7100000000000000000000000000000000000000000000000000000000600052604160045260246000fd5b7f4e487b7100000000000000000000000000000000000000000000000000000000600052602260045260246000fd5b6000600282049050600182168061198657607f821691505b6020821081036119995761199861193f565b5b50919050565b60008190508160005260206000209050919050565b60006020601f8301049050919050565b600082821b905092915050565b600060088302611a017fffffffffffffffffffffffffffffffffffffffffffffffffffffffffffffffff826119c4565b611a0b86836119c4565b95508019841693508086168417925050509392505050565b6000819050919050565b6000611a48611a43611a3e84611500565b611a23565b611500565b9050919050565b6000819050919050565b611a6283611a2d565b611a76611a6e82611a4f565b8484546119d1565b825550505050565b600090565b611a8b611a7e565b611a96818484611a59565b505050565b5b81811015611aba57611aaf600082611a83565b600181019050611a9c565b5050565b601f821115611aff57611ad08161199f565b611ad9846119b4565b81016020851015611ae8578190505b611afc611af4856119b4565b830182611a9b565b50505b505050565b600082821c905092915050565b6000611b2260001984600802611b04565b1980831691505092915050565b6000611b3b8383611b11565b9150826002028217905092915050565b611b558383611905565b67ffffffffffffffff811115611b6e57611b6d611910565b5b611b78825461196e565b611b83828285611abe565b6000601f831160018114611bb25760008415611ba0578287013590505b611baa8582611b2f565b865550611c12565b601f198416611bc08661199f565b60005b82811015611be857848901358255600182019150602085019450602081019050611bc3565b86831015611c055784890135611c01601f891682611b11565b8355505b6001600288020188555050505b50505050505050565b82818337600083830152505050565b6000611c3683856116de565b9350611c43838584611c1b565b611c4c83611719565b840190509392505050565b60006020820190508181036000830152611c72818486611c2a565b90509392505050565b7f4e487b7100000000000000000000000000000000000000000000000000000000600052601160045260246000fd5b6000611cb582611500565b91507fffffffffffffffffffffffffffffffffffffffffffffffffffffffffffffffff8203611ce757611ce6611c7b565b5b600182019050919050565b6000604082019050611d07600083018561150a565b611d14602083018461150a565b9392505050565b7f4e6f7420636c69656e7400000000000000000000000000000000000000000000600082015250565b6000611d51600a836116de565b9150611d5c82611d1b565b602082019050919050565b60006020820190508181036000830152611d8081611d44565b9050919050565b6000611d9282611500565b9150611d9d83611500565b9250828201905080821115611db557611db4611c7b565b5b92915050565b7f496e636f727265637420616d6f756e7400000000000000000000000000000000600082015250565b6000611df16010836116de565b9150611dfc82611dbb565b602082019050919050565b60006020820190508181036000830152611e2081611de4565b9050919050565b6000611e3282611500565b9150611e3d83611500565b9250828203905081811115611e5557611e54611c7b565b5b92915050565b600081905092915050565b50565b6000611e76600083611e5b565b9150611e8182611e66565b600082019050919050565b6000611e9782611e69565b9150819050919050565b7f50726f7669646572207061796f7574206661696c656400000000000000000000600082015250565b6000611ed76016836116de565b9150611ee282611ea1565b602082019050919050565b60006020820190508181036000830152611f0681611eca565b9050919050565b7f436f7572696572207061796f7574206661696c65640000000000000000000000600082015250565b6000611f436015836116de565b9150611f4e82611f0d565b602082019050919050565b60006020820190508181036000830152611f7281611f36565b905091905056fea2646970667358221220702dc04f5a7969c4ae86e9570545729170f4f571f393b46ac5f2920ecf29aa4564736f6c63430008150033",
  "immutableReferences": {},
  "source": "// SPDX-License-Identifier: MIT\r\npragma solidity ^0.8.20;\r\n\r\nimport \"@openzeppelin/contracts/access/Ownable.sol\";\r\nimport \"@openzeppelin/contracts/utils/ReentrancyGuard.sol\";\r\n\r\ncontract OrderFulfillment is Ownable, ReentrancyGuard {\r\n    enum Status { Registered, Priced, Processing, AwaitingPayment, Paid, Invoiced, Closed, Cancelled }\r\n\r\n    struct Order {\r\n        Status status;\r\n        uint256 fulfillmentFee;\r\n        uint256 shipmentFee;\r\n        uint256 paid;\r\n        string tracking;\r\n        string invoiceUri;\r\n    }\r\n\r\n    address public courier;\r\n    address public client;\r\n    uint256 public nextOrderId;\r\n    mapping(uint256 => Order) public orders;\r\n\r\n    event OrderCreated(uint256 indexed orderId);\r\n    event PriceSet(uint256 indexed orderId, uint256 fulfillmentFee, uint256 shipmentFee);\r\n    event StatusChanged(uint256 indexed orderId, Status status);\r\n    event Paid(uint256 indexed orderId, uint256 amount);\r\n    event InvoiceUploaded(uint256 indexed orderId, string uri);\r\n    event PayoutsReleased(uint256 indexed orderId, uint256 toProvider, uint256 toCourier);\r\n\r\n    modifier onlyProvider() { _checkOwner(); _; }\r\n    modifier onlyClient() { require(msg.sender == client, \"Not client\"); _; }\r\n\r\n    constructor(address _client, address _courier) Ownable(msg.sender) {\r\n        client = _client;\r\n        courier = _courier;\r\n    }\r\n\r\n    function createOrder() external onlyProvider returns (uint256 orderId) {\r\n        orderId = nextOrderId++;\r\n        orders[orderId].status = Status.Registered;\r\n        emit OrderCreated(orderId);\r\n    }\r\n\r\n    function setPrice(uint256 orderId, uint256 fulfillmentFee, uint256 shipmentFee) external onlyProvider {\r\n        Order storage o = orders[orderId];\r\n        require(o.status == Status.Registered, \"Bad status\");\r\n        o.fulfillmentFee = fulfillmentFee;\r\n        o.shipmentFee = shipmentFee;\r\n        o.status = Status.Priced;\r\n        emit PriceSet(orderId, fulfillmentFee, shipmentFee);\r\n        emit StatusChanged(orderId, Status.Priced);\r\n    }\r\n\r\n    function markProcessing(uint256 orderId) external onlyProvider {\r\n        Order storage o = orders[orderId];\r\n        require(o.status == Status.Priced, \"Bad status\");\r\n        o.status = Status.Processing;\r\n        emit StatusChanged(orderId, Status.Processing);\r\n    }\r\n\r\n    function requestPayment(uint256 orderId) external onlyProvider {\r\n        Order storage o = orders[orderId];\r\n        require(o.status == Status.Processing, \"Bad status\");\r\n        o.status = Status.AwaitingPayment;\r\n        emit StatusChanged(orderId, Status.AwaitingPayment);\r\n    }\r\n\r\n    function pay(uint256 orderId) external payable onlyClient nonReentrant {\r\n        Order storage o = orders[orderId];\r\n        require(o.status == Status.AwaitingPayment, \"Bad status\");\r\n        uint256 due = o.fulfillmentFee + o.shipmentFee;\r\n        require(msg.value == due, \"Incorrect amount\");\r\n        o.paid = msg.value;\r\n        o.status = Status.Paid;\r\n        emit Paid(orderId, msg.value);\r\n        emit StatusChanged(orderId, Status.Paid);\r\n    }\r\n\r\n    function setTracking(uint256 orderId, string calldata tracking) external onlyProvider {\r\n        Order storage o = orders[orderId];\r\n        require(o.status == Status.Paid || o.status == Status.AwaitingPayment || o.status == Status.Processing, \"Bad status\");\r\n        o.tracking = tracking;\r\n    }\r\n\r\n    function uploadInvoice(uint256 orderId, string calldata uri) external onlyProvider {\r\n        Order storage o = orders[orderId];\r\n        require(o.status == Status.Paid, \"Bad status\");\r\n        o.invoiceUri = uri;\r\n        o.status = Status.Invoiced;\r\n        emit InvoiceUploaded(orderId, uri);\r\n        emit StatusChanged(orderId, Status.Invoiced);\r\n    }\r\n\r\n    function closeAndPayout(uint256 orderId) external onlyProvider nonReentrant {\r\n        Order storage o = orders[orderId];\r\n        require(o.status == Status.Invoiced, \"Bad status\");\r\n        o.status = Status.Closed;\r\n        uint256 toCourier = o.shipmentFee;\r\n        uint256 toProvider = o.paid - toCourier;\r\n        emit StatusChanged(orderId, Status.Closed);\r\n        emit PayoutsReleased(orderId, toProvider, toCourier);\r\n        (bool ok1, ) = owner().call{value: toProvider}(\"\");\r\n        require(ok1, \"Provider payout failed\");\r\n        (bool ok2, ) = courier.call{value: toCourier}(\"\");\r\n        require(ok2, \"Courier payout failed\");\r\n    }\r\n\r\n    function cancel(uint256 orderId) external onlyProvider {\r\n        Order storage o = orders[orderId];\r\n        require(o.status == Status.Registered || o.status == Status.Priced || o.status == Status.Processing, \"Bad status\");\r\n        o.status = Status.Cancelled;\r\n        emit StatusChanged(orderId, Status.Cancelled);\r\n    }\r\n}",
  "sourcePath": "/mnt/c/Users/Marijus/Documents/GitHub/BlockChain/contracts/OrderFulfillment.sol",
  "compiler": {
    "name": "solc",
    "version": "0.8.21+commit.d9974bed.Emscripten.clang"
  },
  "schemaVersion": "3.4.16",
  "updatedAt": "2025-12-17T09:42:40.266Z",
  "networkType": "ethereum",
  "devdoc": {
    "errors": {
      "OwnableInvalidOwner(address)": [
        {
          "details": "The owner is not a valid owner account. (eg. `address(0)`)"
        }
      ],
      "OwnableUnauthorizedAccount(address)": [
        {
          "details": "The caller account is not authorized to perform an operation."
        }
      ],
      "ReentrancyGuardReentrantCall()": [
        {
          "details": "Unauthorized reentrant call."
        }
      ]
    },
    "kind": "dev",
    "methods": {
      "owner()": {
        "details": "Returns the address of the current owner."
      },
      "renounceOwnership()": {
        "details": "Leaves the contract without owner. It will not be possible to call `onlyOwner` functions. Can only be called by the current owner. NOTE: Renouncing ownership will leave the contract without an owner, thereby disabling any functionality that is only available to the owner."
      },
      "transferOwnership(address)": {
        "details": "Transfers ownership of the contract to a new account (`newOwner`). Can only be called by the current owner."
      }
    },
    "version": 1
  },
  "userdoc": {
    "kind": "user",
    "methods": {},
    "version": 1
  }
}